{
  "contractName": "Shares",
  "abi": [
    {
      "constant": true,
      "inputs": [],
      "name": "Count",
      "outputs": [
        {
          "name": "",
          "type": "uint256"
        }
      ],
      "payable": false,
      "stateMutability": "view",
      "type": "function"
    },
    {
      "constant": true,
      "inputs": [
        {
          "name": "",
          "type": "address"
        }
      ],
      "name": "buyers",
      "outputs": [
        {
          "name": "id",
          "type": "uint256"
        },
        {
          "name": "Share_Name",
          "type": "string"
        },
        {
          "name": "Share_Code",
          "type": "string"
        },
        {
          "name": "Buy_Amt",
          "type": "uint256"
        },
        {
          "name": "Sell_Amt",
          "type": "uint256"
        }
      ],
      "payable": false,
      "stateMutability": "view",
      "type": "function"
    },
    {
      "constant": true,
      "inputs": [
        {
          "name": "",
          "type": "uint256"
        }
      ],
      "name": "Share",
      "outputs": [
        {
          "name": "id",
          "type": "uint256"
        },
        {
          "name": "Share_Name",
          "type": "string"
        },
        {
          "name": "Share_Code",
          "type": "string"
        },
        {
          "name": "Buy_Amt",
          "type": "uint256"
        },
        {
          "name": "Sell_Amt",
          "type": "uint256"
        }
      ],
      "payable": false,
      "stateMutability": "view",
      "type": "function"
    },
    {
      "inputs": [],
      "payable": false,
      "stateMutability": "nonpayable",
      "type": "constructor"
    },
    {
      "constant": false,
      "inputs": [
        {
          "name": "user_id",
          "type": "uint256"
        }
      ],
      "name": "buy",
      "outputs": [],
      "payable": false,
      "stateMutability": "nonpayable",
      "type": "function"
    }
  ],
  "bytecode": "0x608060405234801561001057600080fd5b5061009a6040805190810160405280600b81526020017f414343204c494d495445440000000000000000000000000000000000000000008152506040805190810160405280600381526020017f41434300000000000000000000000000000000000000000000000000000000008152506103e86103d46102c3640100000000026401000000009004565b6101236040805190810160405280600f81526020017f4144414e4920504f574552204c544400000000000000000000000000000000008152506040805190810160405280600a81526020017f4144414e49504f574552000000000000000000000000000000000000000000008152506105dc6106406102c3640100000000026401000000009004565b6101ac6040805190810160405280600d81526020017f42414e4b204f4620494e444941000000000000000000000000000000000000008152506040805190810160405280600981526020017f42414e4b494e44494100000000000000000000000000000000000000000000008152506107d06107bc6102c3640100000000026401000000009004565b6102356040805190810160405280600e81526020017f434f414c20494e444941204c54440000000000000000000000000000000000008152506040805190810160405280600981526020017f434f414c494e444941000000000000000000000000000000000000000000000081525061070861070d6102c3640100000000026401000000009004565b6102be6040805190810160405280600781526020017f495443204c5444000000000000000000000000000000000000000000000000008152506040805190810160405280600381526020017f495443000000000000000000000000000000000000000000000000000000000081525061057d6105796102c3640100000000026401000000009004565b6103f5565b600280546001908101918290556040805160a08101825283815260208082018981528284018990526060830188905260808301879052600095865285825292909420815181559151805191949293610321939085019291019061035a565b506040820151805161033d91600284019160209091019061035a565b506060820151600382015560809091015160049091015550505050565b828054600181600116156101000203166002900490600052602060002090601f016020900481019282601f1061039b57805160ff19168380011785556103c8565b828001600101855582156103c8579182015b828111156103c85782518255916020019190600101906103ad565b506103d49291506103d8565b5090565b6103f291905b808211156103d457600081556001016103de565b90565b6104ef806104046000396000f3006080604052600436106100615763ffffffff7c010000000000000000000000000000000000000000000000000000000060003504166393a8333e811461006657806397a993aa1461008d578063d96a094a146101ae578063ffef8f88146101c8575b600080fd5b34801561007257600080fd5b5061007b6101e0565b60408051918252519081900360200190f35b34801561009957600080fd5b506100bb73ffffffffffffffffffffffffffffffffffffffff600435166101e6565b604051808681526020018060200180602001858152602001848152602001838103835287818151815260200191508051906020019080838360005b8381101561010e5781810151838201526020016100f6565b50505050905090810190601f16801561013b5780820380516001836020036101000a031916815260200191505b50838103825286518152865160209182019188019080838360005b8381101561016e578181015183820152602001610156565b50505050905090810190601f16801561019b5780820380516001836020036101000a031916815260200191505b5097505050505050505060405180910390f35b3480156101ba57600080fd5b506101c660043561032a565b005b3480156101d457600080fd5b506100bb6004356103b2565b60025481565b600160208181526000928352604092839020805481840180548651600296821615610100026000190190911695909504601f810185900485028601850190965285855290949193929091908301828280156102825780601f1061025757610100808354040283529160200191610282565b820191906000526020600020905b81548152906001019060200180831161026557829003601f168201915b50505060028085018054604080516020601f60001961010060018716150201909416959095049283018590048502810185019091528181529596959450909250908301828280156103145780601f106102e957610100808354040283529160200191610314565b820191906000526020600020905b8154815290600101906020018083116102f757829003601f168201915b5050505050908060030154908060040154905085565b6000818152602081815260408083203384526001928390529220825481558183018054919261036f928482019291600290821615610100026000190190911604610421565b5060028281018054610394928481019291600019610100600183161502011604610421565b50600382810154908201556004918201549101556000908152602052565b600060208181529181526040908190208054600180830180548551600293821615610100026000190190911692909204601f81018790048702830187019095528482529194929390928301828280156102825780601f1061025757610100808354040283529160200191610282565b828054600181600116156101000203166002900490600052602060002090601f016020900481019282601f1061045a5780548555610496565b8280016001018555821561049657600052602060002091601f016020900482015b8281111561049657825482559160010191906001019061047b565b506104a29291506104a6565b5090565b6104c091905b808211156104a257600081556001016104ac565b905600a165627a7a723058208337ee03bee73bb505fdc883c793b83457860f71b5a075b95c92c61bdd9b23870029",
  "source": "pragma solidity ^0.4.24;\r\nimport \"../node_modules/openzeppelin-solidity/contracts/token/ERC20/StandardToken.sol\";\r\nimport \"../node_modules/openzeppelin-solidity/contracts/token/ERC20/DetailedERC20.sol\";\r\ncontract Shares {\r\n\t//Model Shares\r\n\tstruct Shares{\r\n\t\tuint id;\r\n\t \tstring  Share_Name;\r\n\t\tstring  Share_Code;\r\n\t\tuint  Buy_Amt;\r\n\t\tuint  Sell_Amt;\r\n\t}\r\n\t//Store Shares\r\n\tmapping(uint => Shares) public Share;\r\n\tmapping(address => Shares) public buyers;\r\n\r\n\tuint public Count;\r\n\t//Buy Shares\r\n\t//Sell Shares\r\n\t//Fetch Shares\r\n\t//Store User Shares\r\n\tconstructor() public {\r\n\t\taddShares(\"ACC LIMITED\",\"ACC\",1000,980);\r\n\t\taddShares(\"ADANI POWER LTD\",\"ADANIPOWER\",1500,1600);\r\n\t\taddShares(\"BANK OF INDIA\",\"BANKINDIA\",2000,1980);\r\n\t\taddShares(\"COAL INDIA LTD\",\"COALINDIA\",1800,1805);\r\n\t\taddShares(\"ITC LTD\",\"ITC\",1405,1401);\r\n\t\t// buy(1);\r\n\t\t// buy(2);\r\n\t\t// buy(3);\r\n\t\t// buy(4);\r\n\t\t// buy(5);\r\n\t}\r\n\r\n\tfunction addShares (string _name,string _code,uint _bamt,uint _samt) private{\r\n\t\tCount ++;\r\n\t\tShare[Count] = Shares(Count, _name, _code,_bamt,_samt);\r\n\t}\r\n\t// string myArray[];\r\n\t// function buy(uint _amt) private return (string[]){\r\n\t//    myArray.push(string(_amt));\r\n\t//    myArray.push(msg.sender); \r\n\t//    return myArray;\r\n\t// }\r\n\t// function buy(uint _amt) public {\r\n\t// \treturn _amt;\r\n\t// }\r\n\tfunction buy(uint user_id) public {\r\n\t\tbuyers[msg.sender] = Share[user_id];\r\n\t\tShare[user_id].Buy_Amt;\r\n\t}\r\n    // function buy(uint _userid) private{\r\n    // \t//record that user has bought the share\r\n    // \tuint a=Share[_userid].id;\r\n    // \tstring b=Share[_userid].Share_Name;\r\n    // \tstring c=Share[_userid].Share_Code;\r\n    // \tuint d=Share[_userid].Buy_Amt;\r\n    // \tuint e=Share[_userid].Sell_Amt;\r\n    // \tBuy[_userid] = Shares(a,b,c,d,e);\r\n    // }\r\n\r\n}\r\n\r\ncontract MyToken is StandardToken,DetailedERC20{\r\n\tconstructor(string _name,string _symbol,uint8 _decimals) \r\n\tDetailedERC20(_name,_symbol,_decimals)\r\n\tpublic\r\n\t{\r\n\r\n\t}\r\n}\r\n\r\n",
  "sourcePath": "C:\\Users\\PRIYAM SHAH\\Blockchain\\HashItOut\\contracts\\Shares.sol",
  "compiler": {
    "name": "solc",
    "version": "0.4.24+commit.e67f0147.Emscripten.clang"
  },
  "schemaVersion": "2.0.1",
  "updatedAt": "2018-09-09T03:18:39.001Z"
}